:100000000C94EB010C94B3280C94DA280C94130292
:100010000C9413020C9413020C94E5300C9413020C
:100020000C9413020C9413020C9413020C941302FC
:100030000C9413020C9413020C9413020C941302EC
:100040000C9401290C9413020C94B4260C94E6260B
:100050000C9413020C9413020C9413020C941302CC
:100060000C9413020C941302AA11B111B811BF1110
:10007000C611CD11D411DB11E211E91116121A12B9
:100080001E12221226122A122E12181318132A13C5
:1000900018133F13541370139713A0131D228320BA
:1000A0008A20C920CC206B2178218621AF2105220E
:1000B00007634236B79BD8A71A39685618AEBAAB51
:1000C000558C1D3CB7CC5763BD6DEDFD753EF617E5
:1000D0007231BF000000803F05A84CCDB2D44EB9AC
:1000E0003836A9020C50B9918688083CA6AAAA2ADB
:1000F000BE000000803F1A371A371A375937443785
:1001000053371A371A37593744370000C1C081C1F5
:10011000400101C3C003800241C201C6C00680077E
:1001200041C70005C1C581C4400401CCC00C800D8D
:1001300041CD000FC1CF81CE400E000AC1CA81CB94
:10014000400B01C9C009800841C801D8C0188019F6
:1001500041D9001BC1DB81DA401A001EC1DE81DFFC
:10016000401F01DDC01D801C41DC0014C1D481D5BD
:10017000401501D7C017801641D601D2C012801396
:1001800041D30011C1D181D0401001F0C030803185
:1001900041F10033C1F381F240320036C1F681F7FC
:1001A000403701F5C035803441F4003CC1FC81FD8D
:1001B000403D01FFC03F803E41FE01FAC03A803B16
:1001C00041FB0039C1F981F840380028C1E881E9D4
:1001D000402901EBC02B802A41EA01EEC02E802F7E
:1001E00041EF002DC1ED81EC402C01E4C0248025BD
:1001F00041E50027C1E781E640260022C1E281E314
:10020000402301E1C021802041E001A0C060806165
:1002100041A10063C1A381A240620066C1A681A77B
:10022000406701A5C065806441A4006CC1AC81AD8C
:10023000406D01AFC06F806E41AE01AAC06A806B95
:1002400041AB0069C1A981A840680078C1B881B9F3
:10025000407901BBC07B807A41BA01BEC07E807FFD
:1002600041BF007DC1BD81BC407C01B4C0748075BC
:1002700041B50077C1B781B640760072C1B281B393
:10028000407301B1C071807041B00050C190819144
:1002900040510193C053805241920196C0568057FD
:1002A00041970055C19581944054019CC05C805D8C
:1002B000419D005FC19F819E405E005AC19A819B13
:1002C000405B0199C059805841980188C0488049D5
:1002D0004189004BC18B818A404A004EC18E818F7B
:1002E000404F018DC04D804C418C0044C1848185BC
:1002F00040450187C047804641860182C042804315
:1003000041830041C1818180404042544E3A3000D7
:1003100042544E3A31002C002C002C002C002C00B2
:100320002C004543532E4E55432E4D432E4C4544F1
:100330002E56312E31360000000008000201000068
:100340000304070000000000000000010204081080
:10035000204080010204081020010204081020043B
:10036000040404040404040202020202020303035C
:100370000303030000000023002600290000000002
:1003800000250028002B0000000000240027002A80
:10039000000000FF00002AD5000055AB00007FAB35
:1003A0000000ABAB0000D5560000FF00002AD500CE
:1003B0000055AB0000AA560000FF000000D5002A3F
:1003C00000AB00550081007F005500AB002B00D52D
:1003D000000016275F2D11241FBECFEFD8E0DEBF2F
:1003E000CDBF12E0A0E0B1E0E0E7F9E702C0059080
:1003F0000D92A433B107D9F724E0A4E3B2E001C021
:100400001D92AE32B207E1F711E0CBEED1E004C0AD
:100410002197FE010E94433BC93ED107C9F70E94C4
:1004200043270C94B63C0C940000FF920F931F934B
:10043000CF93DF93EC01F62E08811981C8010E9449
:10044000A03CF81621F06F2DC8010E94A83CCE01F7
:10045000DF91CF911F910F91FF900895DC019C01D6
:100460002E5D3F4F80E090E04D91FC01E427FF2797
:10047000EE0FFF1FE65FFE4F45915491892F99279C
:10048000842795272A173B0779F70895CF93DF93A1
:1004900021E420933602109237024091600250917D
:1004A000610260916202709163024093380250933E
:1004B000390260933A0270933B022091CB02209361
:1004C0003C02DC01A057BF4FE4E5F2E040E050E021
:1004D00020E061E070E03D91332339F0EB01042E20
:1004E00001C0CC0F0A94EAF72C0F11924F5F5F4FB7
:1004F0004430510581F7FC01EB56FF4F308131113B
:10050000206120933D02FC01E159FF4F308131967B
:10051000208140E1349F200D112420933E0231962A
:1005200030813196208140E1349F200D11242093A9
:100530003F02359630813196208140E1349F200D75
:10054000112420934002319630813196208140E180
:10055000349F200D1124209341023596308131962D
:10056000208140E1349F200D1124209342023196D6
:1005700030813196208140E1349F200D1124209359
:100580004302B096A4E4B2E08E529F4F20812D9397
:100590003396E817F907D1F786E392E00E942E021E
:1005A0009093590280935802DF91CF9108952F9232
:1005B0003F924F925F926F927F928F929F92AF92F3
:1005C000BF92CF92DF92EF92FF920F931F93CF9340
:1005D000DF9300D0CDB7DEB76C0161110E943512F8
:1005E00010925B0210925A02109260021092610205
:1005F00010926202109263021092350200E010E045
:100600001A83098361E4CE0101960E941502580104
:1006100086E0A80EB11CF80132967F01FA82E982C9
:1006200060E0CE0101960E941502FFEFEF1AFF0A6B
:10063000AE14BF0499F70C5D1F4F003F83E018070D
:10064000F9F6C6010E94460200E010E0E12CF12C10
:10065000412C512C320143943E2C97E3A92E92E079
:10066000B92ECC24C394D12CF50161915F01C8014E
:100670008C0D9D1D9A838983CE0101960E941502DF
:10068000FFEFCF1ADF0A84E2C816D10469F786E3C8
:10069000A82E82E0B82E480194E2890E911C6801D0
:1006A000F50121905F01C6010E94A03C281661F16E
:1006B000D301C2010E2C04C0880F991FAA1FBB1FB3
:1006C0000A94D2F780959095A095B09540915C02E0
:1006D00050915D0260915E0270915F0284239523C8
:1006E000A623B72380935C0290935D02A0935E02E1
:1006F000B0935F02FFEFEF1AFF0A84018CE1E81666
:10070000F10409F0A9CF0CC09FEFC91AD90AC81487
:10071000D90431F610935B0200935A0230923502ED
:100720000F900F90DF91CF911F910F91FF90EF905D
:10073000DF90CF90BF90AF909F908F907F906F9001
:100740005F904F903F902F9008958F929F92AF921D
:10075000BF92CF92DF92EF92FF920F931F93CF93AE
:10076000DF9300D000D0CDB7DEB78C01E12CF12CA7
:10077000C7010E94A03C8134A1F061E0C8010F9044
:100780000F900F900F90DF91CF911F910F91FF90DD
:10079000EF90DF90CF90BF90AF909F908F900C9490
:1007A000D702CE0101965C01470196E0890E911CAB
:1007B000F70132966F01C6010E94A03CF5018193BA
:1007C0005F01FFEFCF1ADF0A8C149D04A1F78A8125
:1007D00090E0982F8827092E000CAA0BBB0B2981CB
:1007E000822B40916002509161026091620270918F
:1007F0006302481759076A077B0760F48093600219
:1008000090936102A0936202B0936302F0925B0244
:10081000E0925A0284E2E80EF11C90EFE91693E0B0
:10082000F90609F0A5CF86E3C82E82E0D82EE12C88
:10083000F12C80915A0290915B028E0D9F1D0E94B7
:10084000A03CF60181936F01FFEFEF1AFF0A84E2EB
:10085000E816F10471F786E392E00E942E022091DF
:100860005802309159028217930709F086CF809180
:100870005A0290915B02B7010E94DA3A6093350206
:10088000809137028093340280913C028370809380
:10089000CB0280913D02F801EB56FF4F84FB992774
:1008A00090F990833597982F91709083319681FBC2
:1008B000992790F99083319682FB992790F990833C
:1008C000319683FB882780F9808380913E02B4971C
:1008D000982F92959F70908331968F70808380912E
:1008E0003F023196982F92959F70908331968F702A
:1008F0008083809140023596982F92959F709083C7
:1009000031968F708083809141023196982F929515
:100910009F70908331968F708083809142023596CC
:10092000982F92959F70908331968F7080838091DD
:1009300043023196982F92959F70908331968F70D5
:100940008083A4E4B2E0B0960E521F4F8D91808355
:1009500033960E171F07D1F70F900F900F900F903F
:10096000DF91CF911F910F91FF90EF90DF90CF908B
:10097000BF90AF909F908F9008958F929F92AF926B
:10098000BF92CF92DF92EF92FF920F931F93CF937C
:10099000DF9300D0CDB7DEB7409160025091610285
:1009A00060916202709163024F5F5F4F6F4F7F4FA4
:1009B00040936002509361026093620270936302FD
:1009C0004F3F5F4F6105710521F460E00E94D7023F
:1009D00044C00E944602109135021F5F1C3108F08E
:1009E00010E084E2189F6001112497E3E92E92E061
:1009F000F92EF601E653F2404F01F701608186E3DC
:100A0000A82E82E0B82EC4018E0D9F1D9A83898383
:100A1000CE0101960E941502FFEFEF1AFF0A2AE5A8
:100A2000E21622E0F20649F7E12CF12CF5010191E2
:100A30005F01C6018E0D9F1D0E94A03C08130DC0D2
:100A4000FFEFEF1AFF0A24E2E216F10479F7D092E1
:100A50005B02C0925A02109335020F900F90DF9103
:100A6000CF911F910F91FF90EF90DF90CF90BF90AB
:100A7000AF909F908F900895FC018585968508958D
:100A8000CF93DF9300D000D000D0CDB7DEB7AB015D
:100A90001C821D821E82DC01ED91FC910190F0818F
:100AA000E02D19821A821B829E012F5F3F4FBE01EB
:100AB0006C5F7F4F099526960FB6F894DEBF0FBE88
:100AC000CDBFDF91CF91089580E090E0089580E957
:100AD00091E0089580E991E0089580E991E008951A
:100AE00080E991E00895569A0895579A0895209ABA
:100AF0000895219A0895FC018CE991E09183808307
:100B0000138212828FEF8683878380878187828713
:100B1000838781E0848716861586158214828091EA
:100B2000990390919A03892B21F4F0939A03E0930F
:100B30009903A0919703B0919803109721F015960F
:100B4000FC93EE931497F0939803E0939703089522
:100B50000F931F93CF93DF93EC018C010E521F4F25
:100B60008091B002811111C088EB92E00E947B0558
:100B70001092C8021092C7028CEA91E09093B902D9
:100B80008093B80281E08093B00220E030E04BE037
:100B900050E0B80188EB92E00E94212D8E010D50AB
:100BA0001F4F80919702811111C08FE992E00E943E
:100BB0007B051092AF021092AE028EEB91E0909303
:100BC000A00280939F0281E08093970220E030E0B2
:100BD0004FE050E0B8018FE992E00E94212D8E0194
:100BE000005E1E4F80917E02811111C086E892E066
:100BF0000E947B05109296021092950280ED91E082
:100C0000909387028093860281E080937E0220E0A9
:100C100030E04FE050E0B80186E892E00E94212DDC
:100C2000C35BDE4F80916502811111C08DE692E0B9
:100C30000E947B0510927D0210927C0282EE91E070
:100C400090936E0280936D0281E08093650220E0B4
:100C500030E046E050E0BE018DE692E0DF91CF91BA
:100C60001F910F910C94212DCF93DF93EC011882EB
:100C700019821A821B828FEF8C838D8320E62E834C
:100C80008F83888790EA99878A878B873BE4EDE09A
:100C9000F1E0DE011C9601900D923A95E1F7DE013C
:100CA000A95ABF4F36E0E8E5F1E001900D923A9580
:100CB000E1F7DE01A35ABF4F36E0EEE5F1E0019027
:100CC0000D923A95E1F7DE01AD59BF4F36E0E4E60B
:100CD000F1E001900D923A95E1F7DE01A759BF4F7F
:100CE00036E0EAE6F1E001900D923A95E1F7FE0177
:100CF000E159FF4F40917001509171016091720173
:100D000070917301408351836283738334961082A0
:100D100011821282138234964083518362837383DB
:100D200034964091740150917501609176017091F3
:100D300077014083518362837383349640917801B5
:100D40005091790160917A0170917B0140835183C8
:100D500062837383349610821182128213823496D6
:100D60001082319610821182128213823496108280
:100D7000118212821382349640917C0150917D0140
:100D800060917E0170917F01408351836283738300
:100D900034961082319631E030833D961082818303
:100DA000828333961082818382833396108281837B
:100DB000828333961082818382833396208381835A
:100DC00082833396908381838283339610828183DA
:100DD00082833396108211821282339690838183AC
:100DE00082833396208381838283339690838183A9
:100DF000828333961082118212823396108281830D
:100E00008283339620838183828333969083818388
:100E10008283C153DF4F188219821A82DF91CF91EA
:100E20000895CF93DF9300D01F92CDB7DEB7FB01BB
:100E3000208121110BC019821A821B82AE014F5FE3
:100E40005F4F6BE070E08E529F4F26C0213059F407
:100E500019821A821B82AE014F5F5F4F6FE070E014
:100E60008D509F4F19C0223059F419821A821B826B
:100E7000AE014F5F5F4F6FE070E0805E9E4F0CC031
:100E8000233061F419821A821B82AE014F5F5F4FDB
:100E900066E070E0835B9E4F0E94B02A0F900F9037
:100EA0000F90DF91CF910895AF92BF92CF92DF92D2
:100EB000EF92FF920F93CF93DF9300D000D000D03A
:100EC000CDB7DEB77C01DB018C919701280F311D76
:100ED000F901ED58FF4F9081D901A958BF4F8C916E
:100EE000D701A80FB11DAD59BF4F8C91981719F0BC
:100EF0009F5F9083B2C05B011082FB0180819701EC
:100F0000280F311DC901F901E057FF4F2081A701CA
:100F100041565F4F6A01222371F171972081F701D9
:100F2000E20FF11DE95AFF4FDC01AD57BF4F01E061
:100F300020814C9161E973E0CE0104960E94C52A9C
:100F4000BE016C5F7F4FCE0101960E94462E8981C3
:100F5000D6018C938A8111968C9311978B8112966E
:100F60008C93F5018081F701E80FF11DED57FF4FDC
:100F700080818F5F2AC0FC01E558FF4FE081F0E0DF
:100F8000CF01880F991FE80FF91FC7018E559F4F9A
:100F9000E80FF91F8081DA018C93818111968C937F
:100FA0001197828112968C93FB018081F701E80FE3
:100FB000F11DE158FF4F8081F701E80FF11DE95A5B
:100FC000FF4F8081F701EF55FF4F8083D5018C9152
:100FD00081110FC0BE016F5F7F4FC6010E94942D2B
:100FE000AE014F5F5F4F6BE070E0C7018E529F4FC5
:100FF00032C0813079F4BE016F5F7F4FC6010E941D
:10100000942DAE014F5F5F4F6FE070E0C7018D50D0
:101010009F4F21C0823079F4BE016F5F7F4FC601C0
:101020000E94942DAE014F5F5F4F6FE070E0C701EB
:10103000805E9E4F10C0833081F4BE016F5F7F4F92
:10104000C6010E94942DAE014F5F5F4F66E070E0D5
:10105000C701835B9E4F0E94B02A26960FB6F89474
:10106000DEBF0FBECDBFDF91CF910F91FF90EF900C
:10107000DF90CF90BF90AF900895AF92BF92CF9284
:10108000DF92EF92FF920F93CF93DF9300D000D0C7
:1010900000D0CDB7DEB77C015B01DB018C91F7019D
:1010A000E80FF11DCF01ED58FF4F4081DC01A95839
:1010B000BF4F6C9170E0C42ED12C9701260F371FC3
:1010C00027593F4FD9012C9130E0261B370BC21610
:1010D000D306ECF44F5F4083F5018081811104C099
:1010E00019821A821B8299C0813021F419821A82D6
:1010F0001B82A4C0823021F419821A821B82AFC0E5
:10110000833009F0C7C019821A821B82B9C0FC0162
:10111000E057FF4F2081A70141565F4F6A0122230C
:1011200071F171972081F701E20FF11DE95AFF4F2C
:10113000DC01AD57BF4F01E020814C9161E973E0C4
:10114000CE0104960E94C52ABE016C5F7F4FCE017E
:1011500001960E94462E8981D6018C938A81119630
:101160008C9311978B8112968C93F5018081F701F6
:10117000E80FF11DED57FF4F80818D5E2AC0FC0105
:10118000E558FF4FE081F0E0CF01880F991FE80F8D
:10119000F91FC7018E559F4FE80FF91F8081DA01B3
:1011A0008C93818111968C931197828112968C93E6
:1011B000F5018081F701E80FF11DE158FF4F8081B3
:1011C000F701E80FF11DE95AFF4F8081F701EF5554
:1011D000FF4F8083D5018C919701280F311DF901B4
:1011E000ED58FF4F8081D901A958BF4F9C91D7017D
:1011F000A90FB11DA759BF4F9C91891718F48F5F94
:10120000808301C01082F501808181110FC0BE0171
:101210006F5F7F4FC6010E94942DAE014F5F5F4FFD
:101220006BE070E0C7018E529F4F32C0813079F47D
:10123000BE016F5F7F4FC6010E94942DAE014F5FCC
:101240005F4F6FE070E0C7018D509F4F21C082302B
:1012500079F4BE016F5F7F4FC6010E94942DAE01ED
:101260004F5F5F4F6FE070E0C701805E9E4F10C020
:10127000833081F4BE016F5F7F4FC6010E94942DC1
:10128000AE014F5F5F4F66E070E0C701835B9E4F2A
:101290000E94B02A26960FB6F894DEBF0FBECDBFCF
:1012A000DF91CF910F91FF90EF90DF90CF90BF90A3
:1012B000AF9008952F923F924F925F926F927F92DC
:1012C0008F929F92AF92BF92CF92DF92EF92FF9256
:1012D0000F931F93CF93DF9300D000D000D0CDB7F2
:1012E000DEB77C011B01DB018C91F701E80FF11DDA
:1012F000CF01E057FF4F2081A70141565F4F6A01A0
:10130000222389F1DC01AD58BF4F2C917997808160
:10131000F701E80FF11DE759FF4F8081F701E95709
:10132000FF4F281719F02F5F2C9304C01C92808167
:101330008F5F808301E022E0408161E973E0CE01AC
:1013400004960E94C52ABE016C5F7F4FCE010196B4
:101350000E94462E8981D6018C938A8111968C93A6
:1013600011978B8117C0FC01E558FF4FE081F0E039
:10137000CF01880F991FE80FF91FC7018E559F4FA6
:10138000E80FF91F8081DA018C93818111968C938B
:101390001197828112968C93F10180818701080F49
:1013A000111DF801E958FF4F8081F701E80FF11D89
:1013B000E759FF4F808190E001962AE0289FB00115
:1013C000299F700D1124072E000C880B990B0E9489
:1013D0007A232B013C01F801E158FF4FE081E63010
:1013E00058F424E0E29FF0011124E058FE4F808081
:1013F0009180A280B38006C0812C912C88EDA82E0C
:1014000082E4B82E0E944B290E947823A301920106
:101410000E949D222BED3FE049E450E40E94E2242B
:101420000E9498220E94172387010F551F4F22EB1D
:101430003AE54CEB5EE30E942B22A50194010E9449
:10144000E2240E944923D8016C93F101808181112B
:101450000FC0BE016F5F7F4FC6010E94942DAE0189
:101460004F5F5F4F6BE070E0C7018E529F4F32C0FD
:10147000813079F4BE016F5F7F4FC6010E94942DC9
:10148000AE014F5F5F4F6FE070E0C7018D509F4F1F
:1014900021C0823079F4BE016F5F7F4FC6010E9488
:1014A000942DAE014F5F5F4F6FE070E0C701805E2B
:1014B0009E4F10C0833081F4BE016F5F7F4FC60125
:1014C0000E94942DAE014F5F5F4F66E070E0C70150
:1014D000835B9E4F0E94B02A26960FB6F894DEBF1B
:1014E0000FBECDBFDF91CF911F910F91FF90EF9075
:1014F000DF90CF90BF90AF909F908F907F906F9034
:101500005F904F903F902F900895AF92BF92CF92EF
:10151000DF92EF92FF920F93CF93DF9300D000D032
:1015200000D0CDB7DEB77C015B01DB018C91F70108
:10153000E80FF11DCF01E057FF4F2081A701415671
:101540005F4F6A01222319F171972081F701E20FA1
:10155000F11DE95AFF4FDC01AD57BF4F00E020817C
:101560004C9161E973E0CE0104960E94C52ABE0148
:101570006C5F7F4FCE0101960E94462E8981D60175
:101580008C938A8111968C9311978B8117C0FC01E3
:10159000E558FF4FE081F0E0CF01880F991FE80F79
:1015A000F91FC7018E559F4FE80FF91F8081DA019F
:1015B0008C93818111968C931197828112968C93D2
:1015C000F5018081F701E80FF11DDF01A958BF4F38
:1015D0008C91D701A80FB11DA759BF4F9C91943092
:1015E00011F03AE001C035E0ED58FF4F80819817C7
:1015F00009F444C08F5F8083D5018C91F701E80F17
:10160000F11DED58FF4F2081231760F53C96808136
:10161000D701AF55BF4F882379F090E001973FE0A5
:10162000389FF001399FF00D1124EE0DFF1DE20FE0
:10163000F11D84858C932DC01C92D5018C91F701EE
:10164000E80FF11DE558FF4F808190E0FC01EE0F9F
:10165000FF1F8E0F9F1FF701EE55FF4FE80FF91F79
:10166000128217C0F7018081D6018C938181119677
:101670008C931197828112968C930BC01082F50186
:101680008081F701E80FF11DED57FF4F80818D5EDE
:101690008083D5018C9181110FC0BE016F5F7F4F98
:1016A000C6010E94942DAE014F5F5F4F6BE070E06A
:1016B000C7018E529F4F32C0813079F4BE016F5FF7
:1016C0007F4FC6010E94942DAE014F5F5F4F6FE0C8
:1016D00070E0C7018D509F4F21C0823079F4BE0168
:1016E0006F5F7F4FC6010E94942DAE014F5F5F4F29
:1016F0006FE070E0C701805E9E4F10C0833081F4C0
:10170000BE016F5F7F4FC6010E94942DAE014F5FF7
:101710005F4F66E070E0C701835B9E4F0E94B02A76
:1017200026960FB6F894DEBF0FBECDBFDF91CF91E6
:101730000F91FF90EF90DF90CF90BF90AF90089502
:101740008F929F92AF92BF92CF92DF92EF92FF92D1
:101750000F931F93CF93DF9300D01F92CDB7DEB7C7
:101760007C01162F6C0180EFC80ED11C23E6822E5F
:10177000860E962E5701EFE7AE0EB11CF501808163
:10178000F701E80FF11DE95AFF4F01E02081492DD3
:1017900061E973E0CE0101960E94C52A8981F601B4
:1017A00080838A8181838B818283F9E09F0E83E02D
:1017B000C81AD1088910E2CF6701E3EECE1AEEEF26
:1017C000DE0A97E8892E810E912EF5018081F701BE
:1017D000E80FF11DE95AFF4F01E02081492D61E931
:1017E00073E0CE0101960E94C52A8981F6018083AB
:1017F0008A8181838B818283F9E09F0E83E0C81AFE
:10180000D1089810E2CF6701E0EECE1AEEEFDE0AC3
:10181000912EF5018081F701E80FF11DE95AFF4F84
:1018200001E02081492D61E973E0CE0101960E941B
:10183000C52A8981F60180838A8181838B81828395
:10184000F9E09F0E83E0C80ED11C9810E2CF67012B
:10185000E3EBCE1AEEEFDE0A86E3982E910EF50149
:101860008081F701E80FF11DE95AFF4F01E0208167
:10187000412F61E973E0CE0101960E94C52A89815A
:10188000F60180838A8181838B818283175FF3E0F5
:10189000CF0ED11C1911E3CF0F900F900F90DF9155
:1018A000CF911F910F91FF90EF90DF90CF90BF905D
:1018B000AF909F908F9008958F929F92AF92BF921A
:1018C000CF92DF92EF92FF920F931F93CF93DF930C
:1018D00000D01F92CDB7DEB77C01162F6C0183EECE
:1018E000C81A8EEFD80A97E8892E860E962E5701D1
:1018F000EFE7AE0EB11CF5018081F701E80FF11D95
:10190000E95AFF4F01E02081492D61E973E0CE01E2
:1019100001960E94C52A8981F60180838A8181838C
:101920008B818283F9E09F0E83E0C81AD10898105A
:10193000E2CF6701E0EECE1AEEEFDE0A912EF5015E
:101940008081F701E80FF11DE95AFF4F01E0208186
:10195000492D61E973E0CE0101960E94C52A898173
:10196000F60180838A8181838B818283F9E09F0ED7
:1019700083E0C80ED11C9810E2CF6701E3EBCE1ACA
:10198000EEEFDE0A86E3982E910EF5018081F701D5
:10199000E80FF11DE95AFF4F01E02081412F61E975
:1019A00073E0CE0101960E94C52A8981F6018083E9
:1019B0008A8181838B818283175FF3E0CF0ED11CF4
:1019C0001911E3CF0F900F900F90DF91CF911F91DE
:1019D0000F91FF90EF90DF90CF90BF90AF909F90CE
:1019E0008F9008952F923F924F925F926F927F92C5
:1019F0008F929F92AF92BF92CF92DF92EF92FF921F
:101A00000F931F93CF93DF9300D01F92CDB7DEB714
:101A10007C016C01C60ED11CF601ED58FF4F908180
:101A2000D601A958BF4F8C91D701A80FB11DA35A59
:101A3000BF4F8C91981719F09F5F90832BC11901AC
:101A40005A01462E1082460148E8840E911CD401AA
:101A50000C91F601E158FF4F8081F701E80FF11D6D
:101A6000E95AFF4F508019821A821B82F901608166
:101A700070E0AE014F5F5F4FC5010E94B02AF601D2
:101A8000E457FF4F8081811146C04701FCE98F0E6A
:101A9000911C10E0370146E9640E711C53E9E50E14
:101AA000F11C4A944A94B801660F771F81E08415AF
:101AB00030F0D40112968C9112979C9103C0F301DF
:101AC0008281908199838A835B82600F711F6A0D86
:101AD0007B1DCE0101960E94942DF3E08F1A910890
:101AE0000F5F1F4F43E0640E711CE814F904D9F630
:101AF000F601E857FF4F2081422F50E0D1018C9131
:101B000090E00397481759071CF0349681E04EC0C7
:101B10002F5F2083BFC0F4012081D1018C91281751
:101B200008F06CC090E0821B91098330910509F0A8
:101B30003FC06EEF640D402F50E0870105561F4FE8
:101B4000F701E756FF4F4F01623010F4359603C09E
:101B5000F701E856FF4F90813297808189839A83FD
:101B60005B827A01FFEFEF1AFF0AB701660F771F5A
:101B7000E60EF71EB5016E0D7F1DCE0101960E9487
:101B8000942DD8018C91F401908199838A835B8292
:101B9000B7016D5F7F4F6A0D7B1DCE0101960E94DC
:101BA000942DF601E857FF4F80818F5F808372C0CC
:101BB00082309105E9F46EEF640D10E0F701E8560C
:101BC000FF4F9081623010F4349603C0F701EA565B
:101BD000FF4F808189839A835B820F5F1F4FB8011B
:101BE000660F771F060F171FB501600F711FD5CF46
:101BF000019709F04FC02F5F20834CC06EEF640D3A
:101C0000F701E856FF4F4F0128130FC0623018F458
:101C10009081329704C09081F701E456FF4F808194
:101C200089839A835B82B501B8CFF701E756FF4FEE
:101C300085010D5F1F4FD4018C91908199838A8318
:101C40005B82623070F4B501CE0101960E94942D42
:101C5000F4019081F701EA56FF4F808189839A83CE
:101C60000DC0B501CE0101960E94942DF401808132
:101C7000F701E456FF4F908199838A835B82B80114
:101C8000CE0101960E94942DF601E857FF4F108275
:101C9000349610820F900F900F90DF91CF911F918B
:101CA0000F91FF90EF90DF90CF90BF90AF909F90FB
:101CB0008F907F906F905F904F903F902F900895FE
:101CC0004F925F926F927F928F929F92AF92BF924C
:101CD000CF92DF92EF92FF920F931F93CF93DF93F8
:101CE00000D01F92CDB7DEB78C016C01C60ED11C9F
:101CF000F601ED58FF4F9081D601A958BF4F8C9146
:101D0000D801A80FB11DA35ABF4F8C91981719F095
:101D10009F5F908326C139015A01562E10824601D9
:101D200088E8880E911CF401E08039978081F801E1
:101D3000E80FF11DE95AFF4F408019821A821B8279
:101D4000F901608170E0AE014F5F5F4FC5010E94F5
:101D5000B02AF601E457FF4F8081811138C0480155
:101D6000FCE98F0E911CF12C380186E9680E711C7C
:101D70000D561F4F5A945A94B701660F771F91E082
:101D8000951510F0F40101C0F301828190819983CF
:101D90008A834B826E0D7F1D6A0D7B1DCE010196DD
:101DA0000E94942DF3E08F1A91088FEFE81AF80A39
:101DB00093E0690E711C80169106F1F6F601E85762
:101DC000FF4F808181112BC0349681E029C0F4013E
:101DD0008081F3019081882329F1482F50E0292F39
:101DE00030E0B9016F5F7F4F4617570709F054C0C5
:101DF0006EEF650DF801E256FF4F9081623008F0FA
:101E000047C03897808189839A834B82B501CE0180
:101E100001960E94942DF601E857FF4F8081815072
:101E200080839FC09F5FF40190836EEF650DD801A2
:101E3000A856BF4FF801E756FF4FC80185569F4F80
:101E40006C01C50103967C018C91908199838A83F2
:101E50004B82623048F4B501CE0101960E94942D68
:101E6000F601908135970AC0B501CE0101960E9416
:101E7000942DF6019081F801E456FF4F808189830B
:101E80009A834B82B701CE0101960E94942D69C0BE
:101E9000F801E456FF4FB6CF891303C08150F40117
:101EA000BFCFC901019748175907C1F48EEF850DBF
:101EB000F801E856FF4F93E0E99EB00111249081AC
:101EC000823010F4349603C0F801EA56FF4F808147
:101ED00089839A834B826A0D7B1D99CF22503109E9
:101EE00042175307F1F56EEF650DF801E856FF4F05
:101EF000C80187569F4F3C0102964C0193E0E99E32
:101F000070011124623030F490813496808189838D
:101F10009A8307C08081F801EA56FF4F9081998328
:101F20008A834B82B5016E0D7F1DCE0101960E9402
:101F3000942DF4018081F301908199838A834B82EF
:101F4000B7016D5F7F4F6A0D7B1DCE0101960E9428
:101F5000942DF601E857FF4F80818150808334969D
:101F600010820F900F900F90DF91CF911F910F91E2
:101F7000FF90EF90DF90CF90BF90AF909F908F90A9
:101F80007F906F905F904F900895CF93DF931F9253
:101F9000CDB7DEB7FB01208121110AC02BE02983D8
:101FA000AC014E525F4F9E012F5F3F4F60E00BC070
:101FB000213061F42FE02983AC014D505F4F9E0129
:101FC0002F5F3F4F61E00E94F20C19C0223051F4A4
:101FD0002FE02983AC01405E5E4F9E012F5F3F4F93
:101FE00062E00BC0233059F426E02983AC01435B47
:101FF0005E4F9E012F5F3F4F63E00E94600E0F9087
:10200000DF91CF910895CF93DF931F92CDB7DEB7C5
:10201000FB01208121110AC02BE02983AC014E5223
:102020005F4F9E012F5F3F4F60E00BC0213061F496
:102030002FE02983AC014D505F4F9E012F5F3F4F32
:1020400061E00E94600E19C0223051F42FE0298314
:10205000AC01405E5E4F9E012F5F3F4F62E00BC0C0
:10206000233059F426E02983AC01435B5E4F9E0187
:102070002F5F3F4F63E00E94F20C0F90DF91CF91F2
:1020800008952F923F924F925F926F927F928F921C
:102090009F92AF92BF92CF92DF92EF92FF920F93F7
:1020A0001F93CF93DF9300D01F92CDB7DEB73C01D3
:1020B0006C01C60ED11CF601ED58FF4F9081D60180
:1020C000A958BF4F8C91D301A80FB11DA35ABF4F80
:1020D0008C91981719F09F5F908392C019015A0153
:1020E000462E1082F601E857FF4F00813997808114
:1020F000F301E80FF11DE95AFF4F508019821A824F
:102100001B82F901608170E0AE014F5F5F4FC50136
:102110000E94B02AF601E457FF4F8081A301445684
:102120005F4F10E093012A563F4FB3016D567F4F2A
:102130003B014A944A947A01490181114FC0B80188
:10214000660F771F81E0841510F0F70101C0F401DC
:102150008281908199838A835B82600F711F6A0DEF
:102160007B1DCE0101960E94942DF3E0EF1AF10839
:102170000F5F1F4F63E0860E911CE614F704F9F61B
:10218000F601E857FF4F80818F5F808390E0F10177
:10219000208130E023503109821793078CF1F6013A
:1021A000E457FF4F81E080832BC0F401828190814E
:1021B00099838A835B82600F711F6A0D7B1DCE013C
:1021C00001960E94942DF3E0EF1AF1080F5F1F4F64
:1021D00063E0860E911CE614F70441F0B801660F27
:1021E000771FF1E0F41508F3F701E0CFF601E857A7
:1021F000FF4F808181508083811102C0349610820C
:102200000F900F900F90DF91CF911F910F91FF9042
:10221000EF90DF90CF90BF90AF909F908F907F9086
:102220006F905F904F903F902F900895CF93DF93E2
:102230001F92CDB7DEB7FB01208121110AC02BE030
:102240002983AC014E525F4F9E012F5F3F4F60E0EC
:1022500023C0213051F42FE02983AC014D505F4F52
:102260009E012F5F3F4F61E017C0223051F42FE0F5
:102270002983AC01405E5E4F9E012F5F3F4F62E0BD
:102280000BC0233059F426E02983AC01435B5E4F39
:102290009E012F5F3F4F63E00E9441100F90DF913E
:1022A000CF910895BF92CF92DF92EF92FF920F935A
:1022B0001F93CF93DF931F92CDB7DEB78C01FC0144
:1022C000EA56FF4FDC01A255BF4F8C9180831196D7
:1022D0008C911197818312968C91129782833396F9
:1022E00013968C91808311968C911197818312960D
:1022F0008C9112978283339613968C9180831196DA
:102300008C911197818312968C9182831982780126
:1023100084E7E80EF11CBB24B3946801E3E7CE0E1A
:10232000D11C8981843008F063C09091C902911159
:102330005FC0F801E80FF11DE159FF4FE0818E2FDA
:1023400090E08A30910508F04FC0FC01EC5CFF4F33
:102350000C94433BBE016F5F7F4FC8010E94110781
:1023600043C0BE016F5F7F4FC8010E9454073CC04D
:10237000BE016F5F7F4FC8010E943D0835C0BE019E
:102380006F5F7F4FC8010E945A092EC0BE016F5F68
:102390007F4FC8010E94850A27C0BE016F5F7F4F33
:1023A000C8010E94C50F20C0BE016F5F7F4FC801EA
:1023B0000E94031019C0BE016F5F7F4FC8010E94C9
:1023C000161112C0F6016081C8010E94A00BF6012F
:1023D00006C0F7016081C8010E945C0CF701808192
:1023E0008F5F8083B092C90289818F5F898399CF83
:1023F0001092C9020F90DF91CF911F910F91FF9022
:10240000EF90DF90CF90BF9008950F931F93DB0163
:10241000EC910E2F10E0F8013197E730F10510F53F
:10242000E25CFF4FDA012C910C94433BFC01EE552A
:10243000FF4F17C0FC01EB55FF4F13C0FC01E855DF
:10244000FF4F0FC0FC01E555FF4F0BC0FC01E255EB
:10245000FF4F07C0FC01EF54FF4F03C0FC01EC54D9
:10246000FF4F20831F910F910895FC012381DC0110
:10247000AE55BF4F2C93948111969C9311978581F3
:1024800012968C93129713962C9311969C931197F6
:1024900012968C93129713962C9311969C931197E6
:1024A00012968C93129713962C9311969C931197D6
:1024B00012968C931297139636813C93378111961E
:1024C0003C931197308512963C9312971396318561
:1024D0003C93328511963C931197338512963C9329
:1024E000129713962C9311969C93119712968C9396
:1024F0001297A554B10981E08C9311968C93119693
:102500008C9311968C93159693E09C9311969C93C3
:1025100011969C9311969C93159695E09C93119619
:102520009C9311969C9311969C931F971C921196C5
:102530001C9211961C9211961C9252961C92119606
:102540001C9211961C9211961C9211961C92119637
:102550001C9211961C9211961C921C971C9211961B
:102560001C9211961C9211961C9211961C9219960F
:102570008C9311968C9311968C9311968C93119643
:102580001C92EB56FF4F80830C94E01E9C01FC01D3
:10259000E159FF4F90E081E04CE0D901AC56BF4FCC
:1025A00038E021912730C9F028F4253039F0263061
:1025B00061F01EC02A30E0F48C931AC0108E923065
:1025C00051F09330A1F4908F12C0911102C0308F5E
:1025D0000EC0913059F4408F0AC0923011F4408FF0
:1025E00003C0933019F4908F848F02C0108E148E24
:1025F0009F5F9430B1F60895CF93DF93DB012C9168
:10260000EC01C20FD11DCD58DF4F18822C91EC0187
:10261000C20FD11DC159DF4F488350E0FA013197F5
:10262000E930F10508F09AC0EB5BFF4F0C94433B97
:10263000FC01ED58FF4F1082709610823F97108278
:10264000709610823F971082709610823F9710828A
:10265000709613C0FC01ED58FF4F108270961082E7
:102660003F971082709610823F971082709610826A
:102670003F97108270961082319610826FC02C9115
:10268000FC01E20FF11DE857FF4F10822C91223020
:1026900029F42CE0FC01E657FF4F14C02330E1F58C
:1026A000FC01E557FF4F0EC02C91211105C028E019
:1026B000FC01E857FF4F06C0213031F42CE0FC014B
:1026C000E757FF4F208328C0223021F4FC01E65752
:1026D000FF4F21C0233001F5FC01E557FF4F1BC020
:1026E0002C91223029F42CE0FC01E657FF4F05C065
:1026F000FC01233061F4E557FF4F20832C91FC014E
:10270000E20FF11DE457FF4F21E020830CC0E20FE0
:10271000F11DE857FF4F10822C91FC01E20FF11DD3
:10272000E457FF4F1082DF91CF910C94C612FC0149
:10273000ED58FF4F1082349728E02083319609C06E
:10274000FC01EC58FF4F1082359721E02083319631
:1027500029E020833196208331962083DF91CF9129
:102760000895CF93DF93EC010E9457292881398186
:10277000621B730B6A307105B8F3DF91CF91089536
:102780009F92AF92BF92CF92DF92EF92FF920F9300
:102790001F93CF93DF93FC01C080D1802BB12064C5
:1027A000B22E9BB19F7B9BB962858781062F081B48
:1027B000802F07837785A281B3813585448556852F
:1027C00099249394930E4F5F5F5FF680E084C185F8
:1027D000D385F6011181A12C0A2D2A2D3A2D3181A4
:1027E000112788943111380F08F43FEF81958894B0
:1027F00090FC130F1795889491FC130F17958894EC
:1028000092FC130F1795889493FC130F17958894D7
:1028100094FC130F1795889495FC130F17958894C3
:1028200096FC130F1795889497FC130F17958894AF
:10283000032F9110012F860F102F002CBBB800C062
:1028400017FF9BB930810027889400C000C0002C7E
:102850009BB931113F0D00C0002CBBB800C016FF62
:102860009BB908F43FEFF194889400C000C0002C9D
:102870009BB940FD030F00C0002CBBB800C015FF82
:102880009BB90795889441FD030F00C000C0002C40
:102890009BB90795889400C0002CBBB800C014FFFA
:1028A0009BB942FD030F0795889400C000C0002C1F
:1028B0009BB943FD030F00C0002CBBB800C013FF41
:1028C0009BB90795889444FD030F00C000C0002CFD
:1028D0009BB90795889400C0002CBBB800C012FFBC
:1028E0009BB945FD030F0795889400C000C0002CDC
:1028F0009BB946FD030F00C0002CBBB800C011FF00
:102900009BB90795889447FD030F00C000C0002CB9
:102910009BB90795889400C0002CBBB800C010FF7D
:102920009BB9132F4111102FFC0E00C000C0002CCA
:102930009BB900C000C0002CBBB800C017FF9BB9FA
:1029400032810027889400C000C0002C9BB931114F
:102950003E0D00C0002CBBB800C016FF9BB908F4A8
:102960003FEFE70FF11D00C000C0002C9BB950FDE8
:10297000030F00C0002CBBB800C015FF9BB9079522
:10298000889451FD030F00C000C0002C9BB907952F
:10299000889400C0002CBBB800C014FF9BB952FD46
:1029A000030F0795889400C000C0002C9BB953FD0D
:1029B000030F00C0002CBBB800C013FF9BB90795E4
:1029C000889454FD030F00C000C0002C9BB90795EC
:1029D000889400C0002CBBB800C012FF9BB955FD05
:1029E000030F0795889400C000C0002C9BB956FDCA
:1029F000030F00C0002CBBB800C011FF9BB90795A6
:102A0000889457FD030F00C000C0002C9BB90795A8
:102A1000889400C0002CBBB800C010FF9BB9132FD6
:102A20005111102FE19400C000C0002C9BB9ED0E95
:102A300000C000C0BBB800C017FF9BB931810027A0
:102A4000889400C000C0002C9BB93111380F00C021
:102A5000002CBBB800C016FF9BB908F43FEF81956E
:102A6000889400C000C0002C9BB990FC030F00C0EC
:102A7000002CBBB800C015FF9BB90795889491FC4A
:102A8000030F00C000C0002C9BB90795889400C0BC
:102A9000002CBBB800C014FF9BB992FC030F079534
:102AA000889400C000C0002C9BB993FC030F00C0A9
:102AB000002CBBB800C013FF9BB90795889494FC09
:102AC000030F00C000C0002C9BB90795889400C07C
:102AD000002CBBB800C012FF9BB995FC030F0795F3
:102AE000889400C000C0002C9BB996FC030F00C066
:102AF000002CBBB800C011FF9BB90795889497FCC8
:102B0000030F00C000C0002C9BB90795889400C03B
:102B1000002CBBB800C010FF9BB9132F9110102FD1
:102B2000860F00C000C0002C9BB9119709F086CE1B
:102B3000DF91CF911F910F91FF90EF90DF90CF9099
:102B4000BF90AF909F900895CF93DF93EC010E94C8
:102B5000572979836883DF91CF9108950F931F934D
:102B6000CF93DF938B01EC012F96CE010E94B1131E
:102B7000F894C8010E94C013F8014281538120EEED
:102B800031E0DA010E94493BDC01CB01F4E0B6956B
:102B9000A79597958795FA95D1F720E030E0B90190
:102BA000EAE94E9F040E611D5E9F600D711D1124A8
:102BB000650F711D860F971FA11DB11D893EF3E0A2
:102BC0009F07A105B10508F434C0885E9340A109B0
:102BD000B10942E0B695A795979587954A95D1F7A3
:102BE00047E0849F080E211D949F200D311D112464
:102BF000290F311D6091CA0270E0860F971F820F66
:102C0000931F4091850350918603609187037091D3
:102C10008803292F3327420F531F611D711D4093D5
:102C20008503509386036093870370938803809392
:102C3000CA027894CE01DF91CF911F910F910C942D
:102C4000A4159F92AF92BF92CF92DF92EF92FF9224
:102C50000F931F93CF93DF93FC01C080D1802BB1E2
:102C60002068B22E9BB19F779BB962858781062F22
:102C7000081B802F07837785A281B3813585448522
:102C8000568599249394930E4F5F5F5FF680E0849E
:102C9000C185D385F6011181A12C0A2D2A2D3A2D4B
:102CA0003181112788943111380F08F43FEF819555
:102CB000889490FC130F1795889491FC130F179527
:102CC000889492FC130F1795889493FC130F179513
:102CD000889494FC130F1795889495FC130F1795FF
:102CE000889496FC130F1795889497FC130F1795EB
:102CF0008894032F9110012F860F102F002CBBB842
:102D000000C017FF9BB930810027889400C000C025
:102D1000002C9BB931113F0D00C0002CBBB800C086
:102D200016FF9BB908F43FEFF194889400C000C0EF
:102D3000002C9BB940FD030F00C0002CBBB800C0A5
:102D400015FF9BB90795889441FD030F00C000C093
:102D5000002C9BB90795889400C0002CBBB800C01C
:102D600014FF9BB942FD030F0795889400C000C073
:102D7000002C9BB943FD030F00C0002CBBB800C062
:102D800013FF9BB90795889444FD030F00C000C052
:102D9000002C9BB90795889400C0002CBBB800C0DC
:102DA00012FF9BB945FD030F0795889400C000C032
:102DB000002C9BB946FD030F00C0002CBBB800C01F
:102DC00011FF9BB90795889447FD030F00C000C011
:102DD000002C9BB90795889400C0002CBBB800C09C
:102DE00010FF9BB9132F4111102FFC0E00C000C023
:102DF000002C9BB900C000C0002CBBB800C017FF5E
:102E00009BB932810027889400C000C0002C9BB978
:102E100031113E0D00C0002CBBB800C016FF9BB99D
:102E200008F43FEFE70FF11D00C000C0002C9BB974
:102E300050FD030F00C0002CBBB800C015FF9BB9AC
:102E40000795889451FD030F00C000C0002C9BB96A
:102E50000795889400C0002CBBB800C014FF9BB934
:102E600052FD030F0795889400C000C0002C9BB949
:102E700053FD030F00C0002CBBB800C013FF9BB96B
:102E80000795889454FD030F00C000C0002C9BB927
:102E90000795889400C0002CBBB800C012FF9BB9F6
:102EA00055FD030F0795889400C000C0002C9BB906
:102EB00056FD030F00C0002CBBB800C011FF9BB92A
:102EC0000795889457FD030F00C000C0002C9BB9E4
:102ED0000795889400C0002CBBB800C010FF9BB9B8
:102EE000132F5111102FE19400C000C0002C9BB98A
:102EF000ED0E00C000C0BBB800C017FF9BB9318108
:102F00000027889400C000C0002C9BB93111380FF5
:102F100000C0002CBBB800C016FF9BB908F43FEFFF
:102F20008195889400C000C0002C9BB990FC030FD1
:102F300000C0002CBBB800C015FF9BB90795889452
:102F400091FC030F00C000C0002C9BB9079588942A
:102F500000C0002CBBB800C014FF9BB992FC030F4B
:102F60000795889400C000C0002C9BB993FC030F08
:102F700000C0002CBBB800C013FF9BB90795889414
:102F800094FC030F00C000C0002C9BB907958894E7
:102F900000C0002CBBB800C012FF9BB995FC030F0A
:102FA0000795889400C000C0002C9BB996FC030FC5
:102FB00000C0002CBBB800C011FF9BB907958894D6
:102FC00097FC030F00C000C0002C9BB907958894A4
:102FD00000C0002CBBB800C010FF9BB9132F91108C
:102FE000102F860F00C000C0002C9BB9119709F06C
:102FF00086CEDF91CF911F910F91FF90EF90DF90E0
:10300000CF90BF90AF909F9008950F931F93CF9351
:10301000DF938B01EC012F96CE010E94B113F8943F
:10302000C8010E942116F8014281538120EE31E04F
:10303000DA010E94493BDC01CB01F4E0B695A7958B
:1030400097958795FA95D1F720E030E0B901EAE944
:103050004E9F040E611D5E9F600D711D1124650F52
:10306000711D860F971FA11DB11D893EF3E09F07BB
:10307000A105B10508F434C0885E9340A109B109E7
:1030800042E0B695A795979587954A95D1F747E081
:10309000849F080E211D949F200D311D1124290F9E
:1030A000311D6091CA0270E0860F971F820F931F37
:1030B0004091850350918603609187037091880346
:1030C000292F3327420F531F611D711D4093850324
:1030D0005093860360938703709388038093CA029A
:1030E0007894CE01DF91CF911F910F910C94A4158C
:1030F0009F92AF92BF92CF92DF92EF92FF920F9387
:103100001F93CF93DF93FC01C080D18025B1216054
:10311000B22E95B19E7F95B962858781062F081BD7
:10312000802F07837785A281B381358544855685B5
:1031300099249394930E4F5F5F5FF680E084C1857E
:10314000D385F6011181A12C0A2D2A2D3A2D31812A
:10315000112788943111380F08F43FEF8195889436
:1031600090FC130F1795889491FC130F1795889472
:1031700092FC130F1795889493FC130F179588945E
:1031800094FC130F1795889495FC130F179588944A
:1031900096FC130F1795889497FC130F1795889436
:1031A000032F9110012F860F102F002CB5B800C0EF
:1031B00017FF95B930810027889400C000C0002C0B
:1031C00095B931113F0D00C0002CB5B800C016FFF5
:1031D00095B908F43FEFF194889400C000C0002C2A
:1031E00095B940FD030F00C0002CB5B800C015FF15
:1031F00095B90795889441FD030F00C000C0002CCD
:1032000095B90795889400C0002CB5B800C014FF8C
:1032100095B942FD030F0795889400C000C0002CAB
:1032200095B943FD030F00C0002CB5B800C013FFD3
:1032300095B90795889444FD030F00C000C0002C89
:1032400095B90795889400C0002CB5B800C012FF4E
:1032500095B945FD030F0795889400C000C0002C68
:1032600095B946FD030F00C0002CB5B800C011FF92
:1032700095B90795889447FD030F00C000C0002C46
:1032800095B90795889400C0002CB5B800C010FF10
:1032900095B9132F4111102FFC0E00C000C0002C57
:1032A00095B900C000C0002CB5B800C017FF95B993
:1032B00032810027889400C000C0002C95B93111DC
:1032C0003E0D00C0002CB5B800C016FF95B908F43B
:1032D0003FEFE70FF11D00C000C0002C95B950FD75
:1032E000030F00C0002CB5B800C015FF95B90795B5
:1032F000889451FD030F00C000C0002C95B90795BC
:10330000889400C0002CB5B800C014FF95B952FDD8
:10331000030F0795889400C000C0002C95B953FD99
:10332000030F00C0002CB5B800C013FF95B9079576
:10333000889454FD030F00C000C0002C95B9079578
:10334000889400C0002CB5B800C012FF95B955FD97
:10335000030F0795889400C000C0002C95B956FD56
:10336000030F00C0002CB5B800C011FF95B9079538
:10337000889457FD030F00C000C0002C95B9079535
:10338000889400C0002CB5B800C010FF95B9132F69
:103390005111102FE19400C000C0002C95B9ED0E22
:1033A00000C000C0B5B800C017FF95B93181002733
:1033B000889400C000C0002C95B93111380F00C0AE
:1033C000002CB5B800C016FF95B908F43FEF819501
:1033D000889400C000C0002C95B990FC030F00C079
:1033E000002CB5B800C015FF95B90795889491FCDD
:1033F000030F00C000C0002C95B90795889400C049
:10340000002CB5B800C014FF95B992FC030F0795C6
:10341000889400C000C0002C95B993FC030F00C035
:10342000002CB5B800C013FF95B90795889494FC9B
:10343000030F00C000C0002C95B90795889400C008
:10344000002CB5B800C012FF95B995FC030F079585
:10345000889400C000C0002C95B996FC030F00C0F2
:10346000002CB5B800C011FF95B90795889497FC5A
:10347000030F00C000C0002C95B90795889400C0C8
:10348000002CB5B800C010FF95B9132F9110102F64
:10349000860F00C000C0002C95B9119709F086CEA8
:1034A000DF91CF911F910F91FF90EF90DF90CF9020
:1034B000BF90AF909F9008950F931F93CF93DF938A
:1034C0008B01EC012F96CE010E94B113F894C80134
:1034D0000E947818F8014281538120EE31E0DA0130
:1034E0000E94493BDC01CB01F4E0B695A795979586
:1034F0008795FA95D1F720E030E0B901EAE94E9FCF
:10350000040E611D5E9F600D711D1124650F711DFC
:10351000860F971FA11DB11D893EF3E09F07A105EE
:10352000B10508F434C0885E9340A109B10942E0B6
:10353000B695A795979587954A95D1F747E0849FCB
:10354000080E211D949F200D311D1124290F311DBE
:103550006091CA0270E0860F971F820F931F4091FF
:103560008503509186036091870370918803292F0A
:103570003327420F531F611D711D409385035093E4
:10358000860360938703709388038093CA027894BC
:10359000CE01DF91CF911F910F910C94A4159F92B2
:1035A000AF92BF92CF92DF92EF92FF920F931F9351
:1035B000CF93DF93FC01C080D18025B12260B22E71
:1035C00095B19D7F95B962858781062F081B802F55
:1035D00007837785A281B3813585448556859924F3
:1035E0009394930E4F5F5F5FF680E084C185D3852F
:1035F000F6011181A12C0A2D2A2D3A2D3181112796
:1036000088943111380F08F43FEF8195889490FC2D
:10361000130F1795889491FC130F1795889492FCBB
:10362000130F1795889493FC130F1795889494FCA7
:10363000130F1795889495FC130F1795889496FC93
:10364000130F1795889497FC130F17958894032FE1
:103650009110012F860F102F002CB5B800C017FF56
:1036600095B930810027889400C000C0002C95B91E
:1036700031113F0D00C0002CB5B800C016FF95B940
:1036800008F43FEFF194889400C000C0002C95B975
:1036900040FD030F00C0002CB5B800C015FF95B960
:1036A0000795889441FD030F00C000C0002C95B918
:1036B0000795889400C0002CB5B800C014FF95B9D8
:1036C00042FD030F0795889400C000C0002C95B9F7
:1036D00043FD030F00C0002CB5B800C013FF95B91F
:1036E0000795889444FD030F00C000C0002C95B9D5
:1036F0000795889400C0002CB5B800C012FF95B99A
:1037000045FD030F0795889400C000C0002C95B9B3
:1037100046FD030F00C0002CB5B800C011FF95B9DD
:103720000795889447FD030F00C000C0002C95B991
:103730000795889400C0002CB5B800C010FF95B95B
:10374000132F4111102FFC0E00C000C0002C95B9A2
:1037500000C000C0002CB5B800C017FF95B9328179
:103760000027889400C000C0002C95B931113E0D8F
:1037700000C0002CB5B800C016FF95B908F43FEFA3
:10378000E70FF11D00C000C0002C95B950FD030FDC
:1037900000C0002CB5B800C015FF95B907958894F6
:1037A00051FD030F00C000C0002C95B90795889407
:1037B00000C0002CB5B800C014FF95B952FD030F2E
:1037C0000795889400C000C0002C95B953FD030FE5
:1037D00000C0002CB5B800C013FF95B907958894B8
:1037E00054FD030F00C000C0002C95B907958894C4
:1037F00000C0002CB5B800C012FF95B955FD030FED
:103800000795889400C000C0002C95B956FD030FA1
:1038100000C0002CB5B800C011FF95B90795889479
:1038200057FD030F00C000C0002C95B90795889480
:1038300000C0002CB5B800C010FF95B9132F51116E
:10384000102FE19400C000C0002C95B9ED0E00C00F
:1038500000C0B5B800C017FF95B931810027889422
:1038600000C000C0002C95B93111380F00C0002CE9
:10387000B5B800C016FF95B908F43FEF819588945C
:1038800000C000C0002C95B990FC030F00C0002CB4
:10389000B5B800C015FF95B90795889491FC030F42
:1038A00000C000C0002C95B90795889400C0002C7A
:1038B000B5B800C014FF95B992FC030F0795889422
:1038C00000C000C0002C95B993FC030F00C0002C71
:1038D000B5B800C013FF95B90795889494FC030F01
:1038E00000C000C0002C95B90795889400C0002C3A
:1038F000B5B800C012FF95B995FC030F07958894E1
:1039000000C000C0002C95B996FC030F00C0002C2D
:10391000B5B800C011FF95B90795889497FC030FBF
:1039200000C000C0002C95B90795889400C0002CF9
:10393000B5B800C010FF95B9132F9110102F860F46
:1039400000C000C0002C95B9119709F086CEDF9118
:10395000CF911F910F91FF90EF90DF90CF90BF908C
:10396000AF909F9008950F931F93CF93DF938B0198
:10397000EC012F96CE010E94B113F894C8010E9469
:10398000CF1AF8014281538120EE31E0DA010E9422
:10399000493BDC01CB01F4E0B695A7959795879557
:1039A000FA95D1F720E030E0B901EAE94E9F040E24
:1039B000611D5E9F600D711D1124650F711D860FC5
:1039C000971FA11DB11D893EF3E09F07A105B10519
:1039D00008F434C0885E9340A109B10942E0B6956D
:1039E000A795979587954A95D1F747E0849F080E4C
:1039F000211D949F200D311D1124290F311D60912F
:103A0000CA0270E0860F971F820F931F40918503B3
:103A1000509186036091870370918803292F332783
:103A2000420F531F611D711D409385035093860300
:103A300060938703709388038093CA027894CE01C1
:103A4000DF91CF911F910F910C94A415FC01118A65
:103A5000108A08950F931F93CF93DF9320916402F0
:103A60002F5F322F37703093640220FF02C020E8AE
:103A700001C020E031FD2064347009F02062205F35
:103A8000FC01EC01239600E011E06485662331F02F
:103A900070E0C8010E94EE3A6F5F01C060E061878C
:103AA000322F369F030E30E0311D1124311102C038
:103AB000168202C031503683662311F0615061874F
:103AC0003196CE17DF0709F7DF91CF911F910F9144
:103AD0000895EF92FF920F931F93CF93DF93CDB78B
:103AE000DEB762970FB6F894DEBF0FBECDBF8C0174
:103AF0007A01F901DC011C968C917A8369835C83DD
:103B00004B835E834D8390819D8791819E879281B7
:103B10009F87813029F4CE0101960E942A1D06C09C
:103B20001C861B861A86198618861F82188AB7017A
:103B3000CE0101960E94261DD801ED91FC910484CE
:103B4000F585E02DBE016F5F7F4FC8010995629634
:103B50000FB6F894DEBF0FBECDBFDF91CF911F919E
:103B60000F91FF90EF900895EF92FF920F931F93A4
:103B7000CF93DF93CDB7DEB762970FB6F894DEBF71
:103B80000FBECDBF8C017A01F901DC011C968C912E
:103B90007A8369835C834B835E834D8390819D87A9
:103BA00091819E8792819F87813029F4CE01019671
:103BB0000E942A1D06C01C861B861A861986188636
:103BC0001F8283E0888BB701CE0101960E94261DDB
:103BD000D801ED91FC910484F585E02DBE016F5F65
:103BE0007F4FC801099562960FB6F894DEBF0FBEED
:103BF000CDBFDF91CF911F910F91FF90EF9008956E
:103C00008091E202811106C02091080191E0922783
:103C1000909308018F5F8093E202089580910701DD
:103C20008093060182E00E94872A21E0892B09F413
:103C300020E0209307010895EF92FF920F93CF9316
:103C4000DF9364E670E080E090E00E947C2926E04B
:103C500040E855E260E070E087EE92E00E944F2677
:103C60008FE591E00E945227EC010E943406D09328
:103C7000E402C093E302CE010E94A8058091E30212
:103C80009091E4020E94A5038091E3029091E402E6
:103C9000FC01EB56FF4F21E03081311101C020E0E3
:103CA000209308010E94C6128091E3029091E402E1
:103CB0000E94211F62E083E00E941C2A62E082E0F1
:103CC0000E941C2A42E050E060E07EE181E00E9418
:103CD000932841E050E06EE07EE180E00E9493286E
:103CE000E12CF12C00E020E030E040E850E060EF13
:103CF00071E08DE49FE10E948D3101E020E030E031
:103D000040E850E06AEF71E086E29FE10E948D3169
:103D1000DF91CF910F91FF90EF9008958DEC92E09D
:103D200008958091E10208958093E10208958091C1
:103D3000CC0208958093CC020895209108018091CF
:103D4000E3029091E402FC01EB56FF4F222339F08D
:103D500021E020830E94BD0460E173E005C0108271
:103D60000E94BD046AE073E087EE92E00C94C227E3
:103D700080910701811104C080910601811111C059
:103D800080910701882321F080910601882359F052
:103D90008091E202882361F00E949D1E1092E2024F
:103DA000089560E001C061E084E00E94582AF0CFED
:103DB00008959091080181E0892780930801089572
:103DC000882321F081E08093080108951092080172
:103DD00008950F931F93CF93DF930DEC12E0D4E17E
:103DE00087EE92E00E947325892B31F1C091E102A8
:103DF000C43150F487EE92E00E948D25EC2FF0E064
:103E0000E353FD4F808307C01092E102F8018D2F2C
:103E100011928A95E9F78091E102E82FF0E0E353EF
:103E2000FD4F90819A3021F481E08093CC0204C050
:103E30008F5F8093E102D4CFDF91CF911F910F91DB
:103E400008959093E6028093E502089504E10E94AC
:103E5000971E8823E9F00E94911E182F0E948E1E43
:103E6000EC01612F0E947E1F212F482FBE018091FF
:103E7000E5029091E6020E94642080E00E94941E78
:103E8000FE01802F11928A95E9F780E00E949A1E28
:103E900081E090E00E94F233DACF0E94CD320E949E
:103EA0002F308091E5029091E6020E945211E0913C
:103EB000E502F091E602EB56FF4F8081811106C0CA
:103EC00060E08BE993E00E941C2CE9CF60919B039A
:103ED0008BE993E00E941C2CE091E502F091E60250
:103EE000EC56FF4F80818823D1F249E050E060E03A
:103EF00070E08BE993E00E94B32CD1CFFC016430D9
:103F000071F118F4633041F0D3C0653009F489C011
:103F1000663009F4B0C0CCC0828190818F3349F4FF
:103F2000993409F0C5C081E09181943409F0C0C092
:103F3000C0C02181203549F43FEB390F343028F4DB
:103F400080538A3008F460C0B3C0923509F0B0C025
:103F5000233509F0ADC0843509F0AAC060C02281C4
:103F600081812A3399F59081863559F42FEB290FF9
:103F70002430A0F483818053863008F099C085E016
:103F80000895843459F42FEB290F243038F48381B9
:103F90008053863008F08CC086E00895933441F455
:103FA000813308F485C0883308F07FC0838176C0F0
:103FB000823509F07DC09154943008F079C0838136
:103FC0008053823008F074C087E0089593819F3356
:103FD00089F49081933531F4843521F4213409F04A
:103FE00067C061C0893409F063C081E0243409F0FE
:103FF0005FC05FC0203551F43FEB380F343030F4F0
:1040000090539A3008F054C082E00895823509F048
:104010004FC0233509F04CC0943509F049C083E006
:10402000089582818A3371F48081833409F040C01D
:10403000818181538730E0F5838180538A30C0F5D8
:1040400084812CC094819F3349F49181933581F50B
:10405000843571F58381813459F525C093819A3374
:1040600039F59081923421F59181943509F58E349A
:10407000F9F489E0089582818A33D1F48081833410
:10408000B9F481818153873098F4838180538330E0
:1040900078F4848180538A3058F4858180538A3043
:1040A00038F488E0089584E00895823509F487CFD4
:1040B00080E00895CF93DF93EC010E943512CE018A
:1040C000DF91CF910C94BD048F929F92AF92BF92DB
:1040D000FF920F931F93CF93DF9300D01F92CDB722
:1040E000DEB71B821A821982842E912C3AE0831645
:1040F000910408F09DC1F42EDB018C01F401E25B18
:10410000FF4F0C94433B62E273E087EE92E00E9423
:10411000C22793C18C9181548B8312969C9140ED60
:10412000490F49835801E4E9AE0EB11CF501208125
:10413000222311F19153973008F07CC1811111C0F5
:10414000B5978081883029F4C8010E943512F501A5
:1041500004C1F801E059FF4F8081893009F06AC13C
:1041600011C0813009F066C1F801E059FF4F80812C
:10417000893009F05FC1E8CF9853923018F481E09C
:10418000F5018083BE016D5F7F4FC8010E94FC1264
:1041900051C10E945A2051C15C01FFE6AF0EB11C13
:1041A0004C0123E7820E911CF50161915F014AE009
:1041B00050E087EE92E00E942A2860E273E087EEEA
:1041C00092E00E949327A814B90471F75801F2EA0B
:1041D000AF0EB11C480127EB820E911C4AE050E063
:1041E000F501608187EE92E00E942A286EE173E07B
:1041F00087EE92E00E949327F3E0AF0EB11C8A1481
:104200009B0461F758012FE7A20EB11C480133E867
:10421000830E911CF50161915F014AE050E087EE49
:1042200092E00E942A286CE173E087EE92E00E94FF
:1042300093278A149B0471F75801F7E7AF0EB11C5E
:1042400048012BE7820E911CF50161915F014AE064
:1042500050E087EE92E00E942A286AE173E087EE40
:1042600092E00E9493278A149B0471F75801F0E9A9
:10427000AF0EB11C480123E9820E911CF50161913A
:104280005F0170E04AE050E087EE92E00E948B28E8
:1042900068E173E087EE92E00E9493278A149B0402
:1042A00069F7F401608170E04AE050E087EE92E047
:1042B0000E948B2866E173E087EE92E00E949327CC
:1042C000F801EB56FF4F4AE050E0608187EE92E044
:1042D0000E943128B2C09C9191549B8313968C917B
:1042E00080538983F801E90FF11DE158FF4F0CC09D
:1042F0009C9191549B8313968C9180538983F801F0
:10430000E90FF11DE958FF4F808394C09C919154AF
:104310009B8313968C9180538983F801E90FF11DDB
:10432000E057FF4F91E0811101C090E09083882316
:1043300009F480C0F801ED58FF4F1082709610828A
:104340003F971082709610823F971082709610826D
:104350003F97108270961082319610826BC0119632
:104360008C91119780538983243021F413968C917A
:10437000805340C02530B9F414968C911497282F9F
:1043800030E02133310514F080538A8313968C91E9
:1043900090E0813391057CF1C0979A81FAE08F9F7C
:1043A000900D112426C0263031F515968C91159765
:1043B000282F30E02133310514F080538A8314967E
:1043C0008C91149790E0813391053CF0C0979A81CD
:1043D0002AE0829F900D11249A8313968C9190E08D
:1043E0008133910544F0C0979A8134E6839F900D04
:1043F0001124892F8A83AE014E5F5F4FBE016F5F2C
:104400007F4FC8010E94051215C014968C918053ED
:10441000823008F081E08A83F801EB56FF4F9081EB
:104420008A81981751F00E94D91E0E949D1E05C0D6
:1044300080E004C0C8010E94BD048F2D0F900F9032
:104440000F90DF91CF911F910F91FF90BF90AF9090
:104450009F908F9008955058BB27AA270E9443220F
:104460000C941E240E94E52338F00E94EC2320F0D7
:1044700039F49F3F19F426F40C94BB230EF4E09515
:10448000E7FB0C94B523E92F0E94432458F3BA1795
:10449000620773078407950720F079F4A6F50C945A
:1044A00065240EF4E0950B2EBA2FA02D0B01B90157
:1044B00090010C01CA01A0011124FF27591B99F09A
:1044C000593F50F4503E68F11A16F040A22F232FA6
:1044D000342F4427585FF3CF469537952795A795F6
:1044E000F0405395C9F77EF41F16BA0B620B730B9D
:1044F000840BBAF09150A1F0FF0FBB1F661F771F0E
:10450000881FC2F70EC0BA0F621F731F841F48F4C2
:10451000879577956795B795F7959E3F08F0B0CF4B
:104520009395880F08F09927EE0F97958795089532
:104530000E94F523E3950C942F240E94B1220C9441
:104540001E240E94EC2358F00E94E52340F029F439
:104550005F3F29F00C94B52351110C9466240C9400
:10456000BB230E94432468F39923B1F3552391F3AD
:10457000951B550BBB27AA2762177307840738F0D2
:104580009F5F5F4F220F331F441FAA1FA9F335D02F
:104590000E2E3AF0E0E832D091505040E695001CE3
:1045A000CAF72BD0FE2F29D0660F771F881FBB1F9D
:1045B000261737074807AB07B0E809F0BB0B802D7B
:1045C000BF01FF2793585F4F3AF09E3F510578F0A7
:1045D0000C94B5230C9466245F3FE4F3983ED4F327
:1045E000869577956795B795F7959F5FC9F7880F7B
:1045F000911D9695879597F90895E1E0660F771FCD
:10460000881FBB1F621773078407BA0720F0621B5D
:10461000730B840BBA0BEE1F88F7E095089529F40D
:1046200016F00C94B5230C9465240C94BB230E94C3
:104630004B24A8F39638A0F707F80F92E8942BE3E1
:104640003AEA48EB5FE70E94F8240F920F920F922C
:104650004DB75EB70F920E94AE24E0EBF0E00E94EF
:10466000BE234F915F91EF91FF91E595EE1FFF1FE4
:1046700049F0FE57E0684427EE0F441FFA95E1F732
:104680004195550B0E9478240F9007FE0C946C24E2
:1046900008950E944B2488F09F5798F0B92F9927CE
:1046A000B751B0F0E1F0660F771F881F991F1AF01D
:1046B000BA95C9F714C0B13091F00E946524B1E0F9
:1046C00008950C946524672F782F8827B85F39F0F8
:1046D000B93FCCF3869577956795B395D9F73EF4B6
:1046E00090958095709561957F4F8F4F9F4F08955E
:1046F000E89409C097FB3EF490958095709561957C
:104700007F4F8F4F9F4F9923A9F0F92F96E9BB2731
:104710009395F695879577956795B795F111F8CFAD
:10472000FAF4BB0F11F460FF1BC06F5F7F4F8F4F18
:104730009F4F16C0882311F096E911C0772321F00E
:104740009EE8872F762F05C0662371F096E8862FA6
:1047500070E060E02AF09A95660F771F881FDAF7FD
:10476000880F9695879597F9089597F99F6780E840
:1047700070E060E008959FEF80EC0895DF93CF93A1
:104780001F930F93FF92EF92DF927B018C0168944D
:1047900006C0DA2EEF010E94F524FE01E894A591EF
:1047A0002591359145915591A6F3EF010E94432241
:1047B000FE019701A801DA9469F7DF90EF90FF906E
:1047C0000F911F91CF91DF91089500240A9416163E
:1047D000170618060906089500240A9412161306EF
:1047E0001406050608950C94BB230E944B24D8F3AD
:1047F000E894E0E0BB279F57F0F02AED3FE049EC5A
:1048000006C0EE0FBB0F661F771F881F28F0B23A55
:1048100062077307840728F0B25A620B730B840B8C
:10482000E3959A9572F7803830F49A95BB0F661F1E
:10483000771F881FD2F790480C945125092E0394B6
:10484000000C11F4882352F0BB0F40F4BF2B11F47D
:1048500060FF04C06F5F7F4F8F4F9F4F0895EF93AE
:10486000E0FF07C0A2EA2AED3FE049EC5FEB0E94BF
:1048700043220E941E240F90039401FC9058E8EDFF
:10488000F0E00C945D2557FD9058440F551F59F0EA
:104890005F3F71F04795880F97FB991F61F09F3F2D
:1048A00079F087950895121613061406551FF2CF56
:1048B0004695F1DF08C0161617061806991FF1CFA6
:1048C00086957105610508940895E894BB276627CD
:1048D0007727CB0197F908959B01AC0160E070E068
:1048E00080E89FE30C949D220C94B5230C944F25F3
:1048F0000E944B24D8F39923C9F3940F511DA3F3BD
:104900009150504094F059F0882332F0660F771F91
:10491000881F91505040C1F79E3F51052CF7880FDA
:10492000911D9695879597F908955F3FACF0983E55
:104930009CF0BB27869577956795B79508F4B1608D
:104940009395C1F7BB0F58F711F460FFE8CF6F5F85
:104950007F4F8F4F9F4FE3CF0C946624FA01DC0109
:10496000AA0FBB1F9B01AC01BF5728F42227332796
:104970004427507820C0B75190F4AB2F00244695BF
:1049800037952795011CA395D2F3002071F0220FD3
:10499000331F441FB395DAF30ED00C942B226130F1
:1049A0007105A0E88A07B94630F49B01AC0166277F
:1049B000772788279078309621F0208331834283AF
:1049C000538308950E94F5240C941E240E94E5232D
:1049D00038F00E94EC2320F0952311F00C94B523BD
:1049E0000C94BB2311240C9466240E94432470F37E
:1049F000959FC1F3950F50E0551F629FF001729F84
:104A0000BB27F00DB11D639FAA27F00DB11DAA1F92
:104A1000649F6627B00DA11D661F829F2227B00DDF
:104A2000A11D621F739FB00DA11D621F839FA00D6A
:104A3000611D221F749F3327A00D611D231F849FBA
:104A4000600D211D822F762F6A2F11249F57504011
:104A50009AF0F1F088234AF0EE0FFF1FBB1F661F8C
:104A6000771F881F91505040A9F79E3F510580F055
:104A70000C94B5230C9466245F3FE4F3983ED4F382
:104A8000869577956795B795F795E7959F5FC1F7F9
:104A9000FE2B880F911D9695879597F908959F3F56
:104AA00031F0915020F4879577956795B795880FE9
:104AB000911D9695879597F908959F938F937F936E
:104AC0006F93FF93EF939B01AC010E94E224EF915F
:104AD000FF910E94BE232F913F914F915F910C94C3
:104AE000E2240E948B3CFC01918D228D892F90E065
:104AF000805C9F4F821B91098F7399270895FC0159
:104B0000918D828D981731F0828DE80FF11D858D82
:104B100090E008958FEF9FEF0895FC01918D828DB5
:104B2000981761F0828DDF01A80FB11D5D968C9101
:104B3000928D9F5F9F73928F90E008958FEF9FEF0C
:104B40000895FC01538D448D252F30E0842F90E093
:104B5000821B930B541710F0CF9608950197089578
:104B60008CE097E2892B49F089EE9EE1892B29F0B0
:104B70000E940C2781110C94E91E0895FC01848D7C
:104B8000DF01A80FB11DA35ABF4F2C91848D90E077
:104B900001968F739927848FA689B7892C93A08952
:104BA000B1898C91837080648C93938D848D9813DC
:104BB00006C00288F389E02D80818F7D808308956F
:104BC000EF92FF920F931F93CF93DF93EC0181E05D
:104BD000888F9B8D8C8D981305C0E889F989808119
:104BE00085FD26C0F62E0B8D10E00F5F1F4F0F7353
:104BF0001127E02E8C8DE8120CC00FB607FCFACFFF
:104C0000E889F989808185FFF5CFCE010E94BE2514
:104C1000F1CF8B8DFE01E80FF11DE35AFF4FF082BB
:104C20009FB7F8940B8FEA89FB89808180620AC064
:104C30009FB7F894EE89FF896083E889F9898081BC
:104C40008370806480839FBF81E090E0DF91CF918B
:104C50001F910F91FF90EF900895CF93DF93EC0198
:104C6000888D8823C9F0EA89FB89808185FD05C08C
:104C7000A889B9898C9186FD0FC00FB607FCF5CFC6
:104C8000808185FFF2CFA889B9898C9185FFEDCF0E
:104C9000CE010E94BE25E7CFDF91CF910895CF923C
:104CA000DF92EF92FF921F93CF93DF93EC016A01A3
:104CB0007B01122FE889F98982E080834115514EEA
:104CC00061057105B1F060E079E08DE390E0A70146
:104CD00096010E94023BDA01C9010197A109B109BD
:104CE000B695A795979587959C01211580E1380782
:104CF000A8F0E889F989108260E874E88EE190E014
:104D0000A70196010E94023BDA01C9010197A1099E
:104D1000B109B695A795979587959C01EC85FD857A
:104D20003083EE85FF852083188EEC89FD89108302
:104D3000EA89FB89808180618083EA89FB8980819F
:104D400088608083EA89FB89808180688083EA8922
:104D5000FB8980818F7D8083DF91CF911F91FF90B0
:104D6000EF90DF90CF9008951F920F920FB60F92A1
:104D700011242F938F939F93EF93FF93E091F7026A
:104D8000F091F8028081E091FD02F091FE0282FD37
:104D900012C09081809100038F5F8F732091010377
:104DA000821751F0E0910003F0E0E951FD4F958F3B
:104DB0008093000301C08081FF91EF919F918F91BB
:104DC0002F910F900FBE0F901F9018951F920F926A
:104DD0000FB60F9211242F933F934F935F936F93CE
:104DE0007F938F939F93AF93BF93EF93FF9387EE40
:104DF00092E00E94BE25FF91EF91BF91AF919F91EC
:104E00008F917F916F915F914F913F912F910F9073
:104E10000FBE0F901F90189587EE92E00E947325A9
:104E200021E0892B09F420E0822F0895E7EEF2E0DB
:104E30001382128288EE93E0A0E0B0E08483958331
:104E4000A683B7838AE092E09183808385EC90E02B
:104E50009587848784EC90E09787868780EC90E044
:104E6000918B808B81EC90E0938B828B82EC90E035
:104E7000958B848B86EC90E0978B868B118E128EAF
:104E8000138E148E08950E94B8290E945E370E94E6
:104E90001C1EC0EBD5E20E94B81E2097E1F30E94D1
:104EA000B025F9CF0C946A3BCF92DF92EF92FF923C
:104EB0000F931F93CF93DF936C017A018B01C0E0B6
:104EC000D0E0CE15DF0581F0D8016D918D01D601BE
:104ED000ED91FC910190F081E02DC6010995892B9F
:104EE00011F02196EECF7E01C701DF91CF911F9186
:104EF0000F91FF90EF90DF90CF90089561157105AD
:104F000079F0FB0101900020E9F73197AF01461BD2
:104F1000570BDC01ED91FC910280F381E02D0994A7
:104F200080E090E00895EF92FF920F931F93CF934C
:104F3000DF938C017B01C0E0D0E0F701EC0FFD1F97
:104F40006491662361F0D801ED91FC910190F081AC
:104F5000E02DC8010995892B11F02196EECFCE01E5
:104F6000DF91CF911F910F91FF90EF900895DC0199
:104F7000ED91FC910190F081E02D099468E172E0DF
:104F80000C947E270F931F93CF93DF93EC010E9425
:104F900093278C01CE010E94BE27800F911FDF91C5
:104FA000CF911F910F9108958F929F92AF92BF92D0
:104FB000EF92FF920F931F93CF93DF93CDB7DEB79E
:104FC000A1970FB6F894DEBF0FBECDBF7C01FA01EA
:104FD000CB0119A2223008F42AE08E010F5D1F4F89
:104FE000822E912CA12CB12CBF01A50194010E940D
:104FF000023BF901CA01015011096A3010F4605DE9
:1050000001C0695CD8016C93232B242B252B61F7FD
:10501000B801C7010E947E27A1960FB6F894DEBFA3
:105020000FBECDBFDF91CF911F910F91FF90EF90F9
:10503000BF90AF909F908F9008952115310541F456
:10504000DC01ED91FC910190F081E02D642F099439
:105050000C94D4279A01462F50E060E070E00C9445
:105060001D280F931F93CF93DF93EC010E942A28F2
:105070008C01CE010E94BE27800F911FDF91CF913E
:105080001F910F910895CF92DF92EF92FF920F93AD
:105090001F93CF93DF932115310581F4DC01ED914E
:1050A000FC910190F081E02D642FDF91CF911F9151
:1050B0000F91FF90EF90DF90CF9009942A30310547
:1050C00001F577FF1DC06A017B01EC016DE20E94D2
:1050D000B7278C0144275527BA014C195D096E0981
:1050E0007F092AE0CE010E94D427800F911FDF9113
:1050F000CF911F910F91FF90EF90DF90CF90089587
:105100002AE0DF91CF911F910F91FF90EF90DF90F8
:10511000CF900C94D4279A01AB01770F660B770BD5
:105120000C94432808958230E8F4E82FF0E0EE0F65
:10513000FF1FE75FFE4F71836083813041F08091F4
:1051400069008C7F482B40936900E89A089580910C
:105150006900837F440F551F440F551F482B409310
:105160006900E99A08951F920F920FB60F921124C9
:105170002F933F934F935F936F937F938F939F935F
:10518000AF93BF93EF93FF93E0910901F0910A0170
:105190000995FF91EF91BF91AF919F918F917F9171
:1051A0006F915F914F913F912F910F900FBE0F9094
:1051B0001F9018951F920F920FB60F9211242F93E4
:1051C0003F934F935F936F937F938F939F93AF938F
:1051D000BF93EF93FF93E0910B01F0910C010995C0
:1051E000FF91EF91BF91AF919F918F917F916F91BF
:1051F0005F914F913F912F910F900FBE0F901F9095
:1052000018951F920F920FB60F9211242F933F9370
:105210008F939F93AF93BF93809185039091860363
:10522000A0918703B09188033091840323E0230F7A
:105230002D3720F40196A11DB11D05C026E8230FCE
:105240000296A11DB11D2093840380938503909342
:105250008603A0938703B09388038091890390917C
:105260008A03A0918B03B0918C030196A11DB11DFF
:105270008093890390938A03A0938B03B0938C034C
:10528000BF91AF919F918F913F912F910F900FBE42
:105290000F901F9018952FB7F89460918503709127
:1052A000860380918703909188032FBF08953FB7AD
:1052B000F8948091890390918A03A0918B03B09117
:1052C0008C0326B5A89B05C02F3F19F00196A11DA0
:1052D000B11D3FBFBA2FA92F982F8827820F911D8C
:1052E000A11DB11DBC01CD0142E0660F771F881FD3
:1052F000991F4A95D1F708958F929F92AF92BF92CE
:10530000CF92DF92EF92FF926B017C010E945729AE
:105310004B015C01C114D104E104F10401F10E94CC
:1053200086370E945729DC01CB0188199909AA09FF
:10533000BB09883E9340A105B10560F321E0C21A84
:10534000D108E108F10888EE880E83E0981EA11CC0
:10535000B11CC114D104E104F10419F7DBCFFF90B3
:10536000EF90DF90CF90BF90AF909F908F90089577
:10537000789484B5826084BD84B5816084BD85B530
:10538000826085BD85B5816085BDEEE6F0E08081F7
:1053900081608083E1E8F0E0108280818260808318
:1053A000808181608083E0E8F0E08081816080839B
:1053B000E1EBF0E0808184608083E0EBF0E08081CD
:1053C00081608083EAE7F0E080818460808380816F
:1053D0008260808380818160808380818068808317
:1053E0001092C1000895833081F028F4813099F043
:1053F0008230A1F008958730A9F08830B9F0843068
:10540000D1F4809180008F7D03C0809180008F77E0
:1054100080938000089584B58F7702C084B58F7D16
:1054200084BD08958091B0008F7703C08091B00053
:105430008F7D8093B0000895CF93DF9390E0FC01BF
:10544000E55BFC4F2491FC01E15AFC4F84918823D9
:1054500061F190E0880F991FFC01E957FC4FC5915D
:10546000D491FC01E358FC4FA591B491611109C09E
:105470009FB7F8948881209582238883EC912E230E
:105480000BC0623061F49FB7F8948881322F309559
:1054900083238883EC912E2B2C939FBF06C08FB75C
:1054A000F894E8812E2B28838FBFDF91CF91089548
:1054B0001F93CF93DF93282F30E0F901E95CFC4F75
:1054C0008491F901E55BFC4FD491F901E15AFC4F5D
:1054D000C491CC23C1F0162F81110E94F329EC2F27
:1054E000F0E0EE0FFF1FE358FC4FA591B4919FB77A
:1054F000F894111104C08C91D095D82302C0EC917E
:10550000DE2BDC939FBFDF91CF911F910895CF9346
:10551000DF93282F30E0F901E95CFC4F8491F90119
:10552000E55BFC4FD491F901E15AFC4FC491CC23C7
:1055300091F081110E94F329EC2FF0E0EE0FFF1F94
:10554000ED58FC4FA591B491EC91ED2381E090E0F2
:1055500021F480E002C080E090E0DF91CF910895D7
:10556000DA01FC0180E090E0861797076CF42C913B
:10557000208311962C911197218312962C911297CA
:10558000228301963396F0CF08954F925F926F92E7
:105590007F928F929F92AF92BF92CF92DF92EF92C3
:1055A000FF920F931F93522F242F22952F704F702D
:1055B00034E0239FD0011124FB01EA0FFB1FC590AB
:1055C000D590E590F4904701AA24BB24F82D4D2CEA
:1055D0005E2C6F2C7724E42D3C2D442309F435C038
:1055E000002309F432C02F3009F065C0FB0105919A
:1055F000159125913491F22FE12F4295407F342F60
:105600003095682D639F060E60E0611D2F2F249F4B
:10561000020E20E0211DF62FF20F642D639F060E6F
:1056200060E0611D2E2F249F020E20E0211DE62F39
:10563000E20F2C2D239F020E20E0211D049F000E5F
:1056400000E0011D322F300F11245F3FF1F0552390
:10565000C9F05F5FFF2331F02F2F259F020E20E05E
:10566000211DF22FEE2331F02E2F259F020E20E078
:10567000211DE22F332321F0359F030E30E0311D31
:10568000112403C030E0E0E0F0E0DC01FC9311966F
:10569000EC93119712963C931F910F91FF90EF900E
:1056A000DF90CF90BF90AF909F908F907F906F9042
:1056B0005F904F900895FB013496EA0FFB1F97CF40
:1056C0008F929F92AF92BF92CF92DF92EF92FF9212
:1056D0000F931F93CF93DF93EC01188219821A82E4
:1056E0006623C1F1FA0189017C016A0183E0C80ED9
:1056F000D11C862E912CA12CB12C2191222311F1A9
:10570000D8016C916623F1F0822F90E0A0E0B0E028
:105710009C01AD012F5F3F4F4F4F5F4F862F90E0B1
:10572000A0E0B0E0BC01CD016F5F7F4F8F4F9F4F76
:105730000E94CA3A9B01AC01C501B4010E94CA3A59
:10574000D7018C930F5F1F4FBFEFEB1AFB0AEC15CD
:10575000FD0599F6CE01DF91CF911F910F91FF903A
:10576000EF90DF90CF90BF90AF909F908F90089573
:10577000FC018FEF808312821182148613868FEFD3
:105780009FEFDC0187839087A187B2870895CF922E
:10579000DF92EF92FF920F931F93CF93DF932091AD
:1057A000910330919203A9014F5F5F4F5093920391
:1057B0004093910326173707B4F1EC010E944B295F
:1057C0008B019C01E0919103F091920388EE93E0AC
:1057D000E89FB001E99F700DF89F700D1124072E0E
:1057E000000C880B990BC0908D03D0908E03E09035
:1057F0008F03F0909003A90198012C193D094E09DF
:105800005F090E94023B3A8329831092920310920F
:1058100091030E944B2960938D0370938E038093B4
:105820008F0390939003DF91CF911F910F91FF9081
:10583000EF90DF90CF900895AF92BF92CF92DF921A
:10584000EF92FF920F931F93CF93DF9300D01F929D
:10585000CDB7DEB77C01D62EF70183819481A58177
:10586000B681892B8A2B8B2BD1F00E94572900916E
:105870009303109194032091950330919603DC01DA
:10588000CB01801B910BA20BB30BF7010381148199
:105890002581368180179107A207B307E8F20E949D
:1058A0005729609393037093940380939503909387
:1058B0009603D7011B96ED91FC911C97309751F000
:1058C000D70117964D915D916D917C911A978D2D11
:1058D0000995D82E0091990310919A03011511058D
:1058E00079F1F801C484D70111968D919C9112979A
:1058F0008436910508F41486D801ED91FC91A280BC
:10590000B3809801275F3F4FA8014A5F5F4F6D2D1D
:10591000CE0101960E94602BF80145855685628173
:1059200073819E012F5F3F4FC801F5010995D80192
:105930001C96CC921C9714960D911C911597CECF66
:1059400069E170E0C7010E94C72B0F900F900F9084
:10595000DF91CF911F910F91FF90EF90DF90CF904B
:10596000BF90AF9008958F929F92AF92BF92CF92C7
:10597000DF92EF92FF92CF93DF93EC016A017B01FC
:105980000E944B294B015C0161E070E080E090E0F7
:105990000E947C296881CE010E941C2C0E948637BF
:1059A0000E944B29DC01CB0188199909AA09BB097E
:1059B0008C159D05AE05BF0538F3DF91CF91FF90A3
:1059C000EF90DF90CF90BF90AF909F908F90089511
:1059D000CF93DF93EC014423E1F06115710571F180
:1059E0009B0140E050E060E472E48FE090E00E94B0
:1059F000243B8B819C81AD81BE8182179307A407D4
:105A0000B50710F4DA01C9018B839C83AD83BE8393
:105A100015C06115710571F09B0140E050E060E434
:105A200072E48FE090E00E94243B2B833C834D8303
:105A30005E8304C01B821C821D821E82DF91CF9177
:105A40000895CF92DF92EF92FF920F931F93CF931F
:105A5000DF938C016B01EA017901121613061CF029
:105A60007A01C0E0D0E0D801ED91FC910480F5818D
:105A7000E02DC8010995CE01880F991FC80FD91FC5
:105A8000CC0DDD1DF801D383C283F686E586019037
:105A9000F081E02D0284F385E02DC801099541E0F5
:105AA000BC018BE993E00E94E82CC801DF91CF9103
:105AB0001F910F91FF90EF90DF90CF9008958BE9A9
:105AC00093E00C94B82BBC018230910508F4089542
:105AD000613E8EE1780748F49B0195E03695279565
